{
  "contractName": "LinkedList",
  "abi": [
    {
      "inputs": [],
      "payable": true,
      "stateMutability": "payable",
      "type": "constructor"
    },
    {
      "anonymous": false,
      "inputs": [
        {
          "indexed": false,
          "name": "data",
          "type": "string"
        }
      ],
      "name": "print_data",
      "type": "event"
    },
    {
      "constant": true,
      "inputs": [],
      "name": "size",
      "outputs": [
        {
          "name": "sz",
          "type": "uint256"
        }
      ],
      "payable": false,
      "stateMutability": "view",
      "type": "function"
    },
    {
      "constant": true,
      "inputs": [],
      "name": "empty",
      "outputs": [
        {
          "name": "_empty",
          "type": "bool"
        }
      ],
      "payable": false,
      "stateMutability": "view",
      "type": "function"
    },
    {
      "constant": false,
      "inputs": [
        {
          "name": "data",
          "type": "string"
        }
      ],
      "name": "push_front",
      "outputs": [],
      "payable": false,
      "stateMutability": "nonpayable",
      "type": "function"
    },
    {
      "constant": false,
      "inputs": [
        {
          "name": "data",
          "type": "string"
        }
      ],
      "name": "push_back",
      "outputs": [],
      "payable": false,
      "stateMutability": "nonpayable",
      "type": "function"
    },
    {
      "constant": false,
      "inputs": [],
      "name": "front",
      "outputs": [],
      "payable": false,
      "stateMutability": "nonpayable",
      "type": "function"
    },
    {
      "constant": false,
      "inputs": [],
      "name": "back",
      "outputs": [],
      "payable": false,
      "stateMutability": "nonpayable",
      "type": "function"
    },
    {
      "constant": false,
      "inputs": [],
      "name": "pop_front",
      "outputs": [],
      "payable": false,
      "stateMutability": "nonpayable",
      "type": "function"
    },
    {
      "constant": false,
      "inputs": [],
      "name": "pop_back",
      "outputs": [],
      "payable": false,
      "stateMutability": "nonpayable",
      "type": "function"
    },
    {
      "constant": false,
      "inputs": [
        {
          "name": "_prev",
          "type": "bytes32"
        },
        {
          "name": "_next",
          "type": "bytes32"
        },
        {
          "name": "_data",
          "type": "string"
        }
      ],
      "name": "insert",
      "outputs": [],
      "payable": false,
      "stateMutability": "nonpayable",
      "type": "function"
    },
    {
      "constant": false,
      "inputs": [
        {
          "name": "node_id",
          "type": "bytes32"
        }
      ],
      "name": "remove",
      "outputs": [],
      "payable": false,
      "stateMutability": "nonpayable",
      "type": "function"
    }
  ],
  "bytecode": "0x608060405260405180807f4e554c4c00000000000000000000000000000000000000000000000000000000815250600401905060405180910390206000816000191690555060405180807f4e554c4c00000000000000000000000000000000000000000000000000000000815250600401905060405180910390206001816000191690555060015460026001018160001916905550600054600560000181600019169055506000600881905550610956806100bb6000396000f3006080604052600436106100a4576000357c0100000000000000000000000000000000000000000000000000000000900463ffffffff16806323b3331e146100a957806372abd20a146100c05780637abbc49a146101455780638dde08401461015c578063949d225d1461017357806395bc26731461019e5780639eacb7b5146101cf578063a719e78514610238578063ba75bbd8146102a1578063f2a75fe4146102b8575b600080fd5b3480156100b557600080fd5b506100be6102e7565b005b3480156100cc57600080fd5b5061014360048036038101908080356000191690602001909291908035600019169060200190929190803590602001908201803590602001908080601f01602080910402602001604051908101604052809392919081815260200183838082843782019150505050505091929192905050506102f4565b005b34801561015157600080fd5b5061015a610546565b005b34801561016857600080fd5b50610171610553565b005b34801561017f57600080fd5b5061018861062d565b6040518082815260200191505060405180910390f35b3480156101aa57600080fd5b506101cd6004803603810190808035600019169060200190929190505050610637565b005b3480156101db57600080fd5b50610236600480360381019080803590602001908201803590602001908080601f0160208091040260200160405190810160405280939291908181526020018383808284378201915050505050509192919290505050610751565b005b34801561024457600080fd5b5061029f600480360381019080803590602001908201803590602001908080601f0160208091040260200160405190810160405280939291908181526020018383808284378201915050505050509192919290505050610781565b005b3480156102ad57600080fd5b506102b66107b0565b005b3480156102c457600080fd5b506102cd610889565b604051808215151515815260200191505060405180910390f35b6102f2600054610637565b565b6102fc610895565b6000610306610895565b60006008541415610427576000546000191686600019161480156103335750600154600019168560001916145b151561033e57600080fd5b858360000190600019169081600019168152505084836020019060001916908160001916815250508383604001819052508386866040518084805190602001908083835b6020831015156103a75780518252602082019150602081019050602083039250610382565b6001836020036101000a038019825116818451168082178552505050505050905001836000191660001916815260200182600019166000191681526020019350505050604051809103902091508160026001018160001916905550816005600001816000191690555060086000815480929190600101919050555061053e565b858160000190600019169081600019168152505084816020019060001916908160001916815250508381604001819052508386866040518084805190602001908083835b602083101515610490578051825260208201915060208101905060208303925061046b565b6001836020036101000a038019825116818451168082178552505050505050905001836000191660001916815260200182600019166000191681526020019350505050604051809103902091508160096000886000191660001916815260200190815260200160002060010181600019169055508160096000876000191660001916815260200190815260200160002060000181600019169055506008600081548092919060010191905055505b505050505050565b610551600154610637565b565b7ff28ebcc418ad0cc2580eff4e10630b2c77740c6cc7143fe7c908fec456dfbcfb6009600060015460001916600019168152602001908152602001600020600201604051808060200182810382528381815460018160011615610100020316600290048152602001915080546001816001161561010002031660029004801561061d5780601f106105f25761010080835404028352916020019161061d565b820191906000526020600020905b81548152906001019060200180831161060057829003601f168201915b50509250505060405180910390a1565b6000600854905090565b600960008260001916600019168152602001908152602001600020600001546009600060096000856000191660001916815260200190815260200160002060010154600019166000191681526020019081526020016000206000018160001916905550600960008260001916600019168152602001908152602001600020600101546009600060096000856000191660001916815260200190815260200160002060000154600019166000191681526020019081526020016000206001018160001916905550600960008260001916600019168152602001908152602001600020600080820160009055600182016000905560028201600061073991906108bd565b50506008600081548092919060019003919050555050565b61077e600960006001546000191660001916815260200190815260200160002060000154600154836102f4565b50565b6107ad6000546009600080546000191660001916815260200190815260200160002060010154836102f4565b50565b7ff28ebcc418ad0cc2580eff4e10630b2c77740c6cc7143fe7c908fec456dfbcfb6009600080546000191660001916815260200190815260200160002060020160405180806020018281038252838181546001816001161561010002031660029004815260200191508054600181600116156101000203166002900480156108795780601f1061084e57610100808354040283529160200191610879565b820191906000526020600020905b81548152906001019060200180831161085c57829003601f168201915b50509250505060405180910390a1565b60008060085414905090565b6060604051908101604052806000801916815260200160008019168152602001606081525090565b50805460018160011615610100020316600290046000825580601f106108e35750610902565b601f0160209004906000526020600020908101906109019190610905565b5b50565b61092791905b8082111561092357600081600090555060010161090b565b5090565b905600a165627a7a7230582005ee327ef948d01006ca34f1a2cb1269c42bb003438f8eb664ab8a1d5513a5e80029",
  "source": "pragma solidity ^0.4.0;\n\ncontract LinkedList { \n    \n    bytes32 constant NULL_NODE_ID = keccak256(\"NULL\");\n    \n    struct Node {\n        bytes32 prev;\n        bytes32 next;\n        string data; \n    }\n    \n    bytes32 _front;\n    bytes32 _back;\n    Node _front_node;\n    Node _back_node;\n    uint public size;\n    \n    mapping(bytes32=>Node) nodes;\n    \n    constructor() public payable {\n        //setting the bytess32 front and back \n        _front = NULL_NODE_ID;\n        _back = NULL_NODE_ID;\n        _front_node.next = _back;\n        _back_node.prev = _front; \n        size = 0;\n    }\n    \n    function size() public view returns(uint sz) {\n        return size;\n    }\n    \n    function empty() public view returns(bool _empty) {\n        return size == 0;\n    }\n    \n    event print_data(string data);\n    \n    function push_front(string data) public {\n        insert(_front, nodes[_front].next, data);\n    }\n    \n    function push_back(string data) public {\n        insert(nodes[_back].prev, _back, data);\n    }\n    \n    function front() public{\n        emit print_data(nodes[_front].data);\n    }\n    \n    function back() public{\n        emit print_data(nodes[_back].data);\n    }\n    \n\n    function pop_front() public {\n        remove(_front);\n    }\n    \n    function pop_back() public {\n        remove(_back);\n    }\n    \n    function insert(bytes32 _prev, bytes32 _next, string _data) public {\n        if (size == 0) {\n            require(_prev == _front && _next == _back);\n            Node memory new_node; \n            new_node.prev = _prev; \n            new_node.next = _next; \n            new_node.data = _data;\n            bytes32 new_node_id = keccak256(_data, _prev, _next);\n            _front_node.next = new_node_id;\n            _back_node.prev = new_node_id; \n            size++;\n        }\n        else {\n            Node memory _new_node; \n            _new_node.prev = _prev; \n            _new_node.next = _next; \n            _new_node.data = _data;\n            new_node_id = keccak256(_data, _prev, _next);\n            nodes[_prev].next = new_node_id;\n            nodes[_next].prev = new_node_id;\n            size++;\n        }\n        \n    }\n    \n    function remove(bytes32 node_id) public {\n        nodes[nodes[node_id].next].prev = nodes[node_id].prev;\n        nodes[nodes[node_id].prev].next = nodes[node_id].next;\n        delete nodes[node_id];\n        size--;\n    }   \n}",
  "sourcePath": "/home/jinsy/src/DoublyLinkedList/contracts/DoublyLinkedList.sol",
  "compiler": {
    "name": "solc",
    "version": "0.4.24+commit.e67f0147.Emscripten.clang"
  },
  "schemaVersion": "2.0.1",
  "updatedAt": "2018-07-02T19:01:29.668Z"
}